:100000000C942C010C9454010C9454010C94540144
:100010000C9454010C9454010C9454010C9454010C
:100020000C9454010C9454010C9454010C945401FC
:100030000C9454010C9462040C9454010C945401DB
:100040000C9418040C9454010C94E6030C94C00313
:100050000C9454010C9454010C9454010C945401CC
:100060000C9454010C9454016368617267654144B7
:10007000435A65726F3D006E6F20454550524F4D9B
:10008000206461746120666F756E642C20757369DD
:100090006E672064656661756C742063616C69626B
:1000A000726174696F6E2028494E413136392900DA
:1000B00000000000240027002A00000000002500A6
:1000C00028002B00663D00543D0020203120206692
:1000D0006F722063757272656E742073656E736FD4
:1000E000722063616C6962726174696F6E00707214
:1000F0006573732E2E2E005553455F4348475F436B
:10010000555252454E54203D005553455F5045527F
:10011000495F43555252454E543D005553455F503B
:100120004552495F4641554C543D00417264756DDE
:100130006F7765722053656E646572200053544179
:1001400052540063616C6962726174696F6E2064FD
:100150006F6E650063616C696272617465436861AA
:1001600072676543757272656E7453656E736F72F4
:1001700020286E6F74653A20726F626F74206D75FF
:100180007374206265206F75747369646520636899
:10019000617267696E672073746174696F6E21297B
:1001A000007265636569766564206B65793D000062
:1001B00000000023002600290004040404040404B1
:1001C0000402020202020203030303030301020406
:1001D00008102040800102040810200102040810C9
:1001E00020000000080002010000030407000000D6
:1001F000000000000009746F75743D0009666175A8
:100200006C74733D00096D61783D00097065726919
:1002100043757272656E74206176673D000969737B
:100220004368617267696E673D000963686743757B
:100230007272656E744144433D000963686743759B
:100240007272656E743D0074696D653D004D435F6B
:100250004641554C54005C0D11241FBECFEFD8E031
:10026000DEBFCDBF24E0A6E8B1E001C01D92A037FB
:10027000B207E1F711E0A0E0B1E0EEE5F0E202C084
:1002800005900D92A638B107D9F711E0CCE2D1E084
:1002900004C02197FE010E942210CB32D107C9F77A
:1002A0000E942E070C942D100C940000089580E0FD
:1002B00090E00895FC01538D448D252F30E0842F6C
:1002C00090E0821B930B541710F0CF96089501977E
:1002D0000895FC01918D828D981761F0828DDF0168
:1002E000A80FB11D5D968C91928D9F5F9F73928F29
:1002F00090E008958FEF9FEF0895FC01918D828D1E
:10030000981731F0828DE80FF11D858D90E00895EA
:100310008FEF9FEF0895FC01918D228D892F90E042
:10032000805C9F4F821B91098F739927089585ECFC
:1003300091E00E948B0121E0892B09F420E0822FBB
:100340000895FC01848DDF01A80FB11DA35ABF4F92
:100350002C91848D90E001968F739927848FA689C4
:10036000B7892C93A089B1898C9180648C93938DEB
:10037000848D981306C00288F389E02D80818F7DDB
:1003800080830895EF92FF920F931F93CF93DF9393
:10039000EC0181E0888F9B8D8C8D981305C0E889D6
:1003A000F989808185FD24C0F62E0B8D10E00F5F4A
:1003B0001F4F0F731127E02E8C8DE8120CC00FB663
:1003C00007FCFACFE889F989808185FFF5CFCE0156
:1003D0000E94A101F1CF8B8DFE01E80FF11DE35AC0
:1003E000FF4FF0820B8FEA89FB898081806207C012
:1003F000EE89FF896083E889F98980818064808340
:1004000081E090E0DF91CF911F910F91FF90EF90ED
:100410000895CF93DF93EC01888D8823C9F0EA8992
:10042000FB89808185FD05C0A889B9898C9186FDED
:100430000FC00FB607FCF5CF808185FFF2CFA889EA
:10044000B9898C9185FFEDCFCE010E94A101E7CF44
:10045000DF91CF91089580E090E0892B29F00E94F0
:10046000970181110C9400000895833081F028F4E5
:10047000813099F08230A1F008958730A9F088305A
:10048000B9F08430D1F4809180008F7D03C08091D9
:1004900080008F7780938000089584B58F7702C0A5
:1004A00084B58F7D84BD08958091B0008F7703C09F
:1004B0008091B0008F7D8093B00008951F93CF93FB
:1004C000DF93282F30E0F901EF51FE4F8491F901BD
:1004D000E353FE4FD491F901E754FE4FC491CC236E
:1004E000C9F0162F81110E943502EC2FF0E0EE0FBB
:1004F000FF1FE654FF4FA591B4918FB7F8941111E7
:1005000005C09C91ED2FE095E92302C0EC91ED2B05
:10051000EC938FBFDF91CF911F91089580919D0142
:10052000882379F1E0918601F0918701EF5FFE4F1A
:100530008081813019F429985A9A0BC0E091860184
:10054000F0918701EF5FFE4F80818F3F21F4299A60
:100550005A985D9A01C05D982C9A8091860190917D
:10056000870101969093870180938601809186018F
:1005700090918701CC9769F41092870110928601BF
:10058000089560E085E00E945E0260E08CE00C94DB
:100590005E020895CF93DF9390E0FC01E353FE4F9A
:1005A0002491FC01E754FE4F8491882361F190E08F
:1005B000880F991FFC01E055FF4FC591D491FC01B4
:1005C000E654FF4FA591B491611109C09FB7F8940B
:1005D0008881209582238883EC912E230BC0623082
:1005E00061F49FB7F8943881822F809583238883A4
:1005F000EC912E2B2C939FBF06C08FB7F894E88107
:100600002E2B28838FBFDF91CF9108958E3008F075
:100610008E5087702091000190E4299F9001112451
:10062000822B80937C0080917A00806480937A0092
:1006300080917A0086FDFCCF80917800209179002E
:1006400090E0922B08953FB7F89480918D0190919E
:100650008E01A0918F01B091900126B5A89B05C095
:100660002F3F19F00196A11DB11D3FBFBA2FA92F31
:10067000982F8827820F911DA11DB11DBC01CD01AE
:1006800042E0660F771F881F991F4A95D1F708959A
:100690008F929F92AF92BF92CF92DF92EF92FF9292
:1006A0006B017C010E9423034B015C01C114D10446
:1006B000E104F104F1F00E942303DC01CB0188196D
:1006C0009909AA09BB09883E9340A105B10570F3B9
:1006D00021E0C21AD108E108F10888EE880E83E013
:1006E000981EA11CB11CC114D104E104F10419F736
:1006F000DDCFFF90EF90DF90CF90BF90AF909F90B5
:100700008F9008952FB7F8946091890170918A01B4
:1007100080918B0190918C012FBF0895CF9380E041
:1007200090E00E94CB0E8B3299F481E090E00E9421
:10073000CB0EC82F82E090E00E94CB0E2C2F30E031
:10074000322F2227282B3093B0012093AF0104C011
:1007500087E790E00E94E20688E690E00E94DE04CF
:100760004091AF015091B00160E070E02AE085EC6B
:1007700091E00E946A0585EC91E0CF910C94DE0631
:100780001F920F920FB60F9211242F933F934F9306
:100790005F936F937F938F939F93AF93BF93EF93E9
:1007A000FF9385EC91E00E94A101FF91EF91BF9131
:1007B000AF919F918F917F916F915F914F913F91F9
:1007C0002F910F900FBE0F901F9018951F920F92B0
:1007D0000FB60F9211242F938F939F93EF93FF9354
:1007E000E091D501F091D6018081E091DB01F0919B
:1007F000DC0182FD12C090818091DE018F5F8F73DA
:100800002091DF01821751F0E091DE01F0E0EB531F
:10081000FE4F958F8093DE0101C08081FF91EF91A3
:100820009F918F912F910F900FBE0F901F90189551
:100830001F920F920FB60F9211242F933F938F9315
:100840009F93AF93BF938091890190918A01A0916A
:100850008B01B0918C013091880123E0230F2D375B
:1008600020F40196A11DB11D05C026E8230F0296B4
:10087000A11DB11D209388018093890190938A0165
:10088000A0938B01B0938C0180918D0190918E018A
:10089000A0918F01B09190010196A11DB11D80938F
:1008A0008D0190938E01A0938F01B0939001BF9121
:1008B000AF919F918F913F912F910F900FBE0F900D
:1008C0001F9018951F920F920FB60F9211242F931D
:1008D0003F934F935F936F937F938F939F93AF93C8
:1008E000BF93EF93FF93E0919501F09196010995E5
:1008F000FF91EF91BF91AF919F918F917F916F91F8
:100900005F914F913F912F910F900FBE0F901F90CD
:100910001895CF92DF92EF92FF920F931F93CF9390
:10092000DF936C017A018B01C0E0D0E0CE15DF05CA
:1009300089F0D8016D918D01D601ED91FC91019066
:10094000F081E02DC6010995892B11F47E0102C0CA
:100950002196ECCFC701DF91CF911F910F91FF90AE
:10096000EF90DF90CF9008950E942810E5ECF1E021
:10097000A089B18982E08C93A485B5851C92A68557
:10098000B78587E68C93108EA489B58986E08C9311
:10099000A289B3898C9180618C93A289B3898C914F
:1009A00088608C93A289B3898C9180688C9302882B
:1009B000F389E02D80818F7D808308950F931F93AD
:1009C000CF93DF938C01C0E0D0E0F801EC0FFD1F66
:1009D0006491662371F0E091C501F091C601019028
:1009E000F081E02D85EC91E00995892B11F021969D
:1009F000ECCFCE01DF91CF911F910F910895E0913F
:100A0000C501F091C6010190F081E02D682F85ECC1
:100A100091E00994AF92BF92CF92DF92EF92FF9252
:100A20000F931F93CF93DF93D091AB02DD2381F11E
:100A30008C018DEAA82E82E0B82EC12CD12C760133
:100A4000C0E0F501619171915F0180E090E00E944A
:100A5000AC0D9B01AC01C701B6010E94040F6B01F4
:100A60007C01CF5FCD13EDCF6C2F70E080E090E084
:100A70000E94AE0D9B01AC01C701B6010E94700F30
:100A8000F801608371838283938380E090E002C0E9
:100A900081E090E0DF91CF911F910F91FF90EF9057
:100AA000DF90CF90BF90AF9008956115710579F0F8
:100AB000FB0101900020E9F73197AF01461B570B6E
:100AC000DC01ED91FC910280F381E02D099480E03E
:100AD00090E008954F925F926F927F92EF92FF9213
:100AE0000F931F93CF93DF93CDB7DEB7A1970FB6C8
:100AF000F894DEBF0FBECDBF7C01FA01CB0119A275
:100B0000223008F42AE08E010F5D1F4F422E512C37
:100B1000612C712CBF01A30192010E94E10EF90129
:100B2000CA01015011096A3014F4605D01C0695CAA
:100B3000D8016C93232B242B252B61F7B801C70117
:100B40000E945505A1960FB6F894DEBF0FBECDBF2B
:100B5000DF91CF911F910F91FF90EF907F906F9059
:100B60005F904F9008958F929F92AF92BF92CF92D5
:100B7000DF92EF92FF920F931F93CF93DF936B015E
:100B80007C01142F20E030E0A9010E94A70D87FF0F
:100B900009C08DE20E94FF04EC01F7FAF094F7F827
:100BA000F09402C0C0E0D0E000E060E070E080E0DF
:100BB0009FE3011741F020E030E040E251E40E9461
:100BC000700F0F5FF6CF9B01AC01C701B6010E9409
:100BD000040F6B017C010E94E90F4B015C010E9434
:100BE000AC0D9B01AC01C701B6010E94030F6B0164
:100BF0007C012AE0B501A40185EC91E00E946A0520
:100C0000C80FD91F112329F08EE20E94FF04C80FDC
:100C1000D91F112331F120E030E040E251E4C70157
:100C2000B6010E940D0E4B015C010E94E90F6B01A1
:100C3000E12CF12C2AE0B701A60185EC91E00E949D
:100C40006A05C80FD91FC701B6010E94AC0D9B01F0
:100C5000AC01C501B4010E94030F6B017C0111506E
:100C6000D8CFCE01DF91CF911F910F91FF90EF90E0
:100C7000DF90CF90BF90AF909F908F9008958F920C
:100C80009F92AF92BF92CF92DF92EF92FF92CF935B
:100C90006B017C01C42F9B01AC010E941D108823B5
:100CA00019F069E771E01AC046015701E894B7F8F6
:100CB0002FEF3FEF4FE75FE7C501B4010E941D1022
:100CC000811119C02FEF3FEF4FE75FE7C501B40176
:100CD0000E94A70D18167CF46DE771E085EC91E099
:100CE000CF91FF90EF90DF90CF90BF90AF909F900B
:100CF0008F900C9455052FEF3FEF4FE75FE4C7014E
:100D0000B6010E94181018161CF461E871E0E6CFD5
:100D10002FEF3FEF4FE75FECC701B6010E94A70D31
:100D200087FDF3CF4C2FC701B601CF91FF90EF9015
:100D3000DF90CF90BF90AF909F908F900C94B305B1
:100D40000F931F93CF93DF9300D000D0CDB7DEB7C2
:100D5000AC01990F660B770B77FF23C08DE24983B7
:100D60005A836B837C830E94FF048C0149815A81E2
:100D70006B817C8170956095509541955F4F6F4F69
:100D80007F4F2AE085EC91E00E946A05800F911F59
:100D90000F900F900F900F90DF91CF911F910F91B7
:100DA00008952AE085EC91E00F900F900F900F903E
:100DB000DF91CF911F910F910C946A056EE571E060
:100DC0000C945505CF93DF930E94DE04EC0185EC73
:100DD00091E00E94DE068C0F9D1FDF91CF91089558
:100DE0000F931F93CF93DF9300D000D0CDB7DEB722
:100DF000AC01990F660B770B77FF1BC08DE249831F
:100E00005A836B837C830E94FF048C0149815A8141
:100E10006B817C8170956095509541955F4F6F4FC8
:100E20007F4F2AE085EC91E00E946A05080F191FA8
:100E300006C02AE085EC91E00E946A058C0185ECF1
:100E400091E00E94DE06800F911F0F900F900F908F
:100E50000F90DF91CF911F910F910895CF93DF9362
:100E6000CDB7DEB7C558D1090FB6F894DEBF0FBEB7
:100E7000CDBF789484B5826084BD84B5816084BD23
:100E800085B5826085BD85B5816085BD80916E0028
:100E9000816080936E001092810080918100826059
:100EA0008093810080918100816080938100809196
:100EB00080008160809380008091B1008460809385
:100EC000B1008091B00081608093B00080917A0081
:100ED000846080937A0080917A00826080937A00A7
:100EE00080917A00816080937A0080917A00806896
:100EF00080937A001092C1001092A6021092A7026D
:100F00001092A8021092A902109264021092650237
:100F1000109266021092670268EB7BE080E090E03E
:100F20000E94480385EC91E09093A5028093A4026F
:100F30000E94B6040E94820360936402709365026B
:100F400080936602909367026FE471E08091A4023F
:100F50009091A5020E9455056AE070E080E090E063
:100F60000E94480311E01093780261E089E00E943A
:100F7000CA0261E082E00E94CA0261E085E00E944C
:100F8000CA0261E083E00E94CA0261E08CE00E9434
:100F9000CA0261E083E10E94CA0261E082E10E942C
:100FA000CA0260E08EE00E94CA0260E084E00E9413
:100FB000CA0260E080E10E94CA0283E080930001DF
:100FC0000E94B6048DE391E00E94E2068BE291E07C
:100FD0000E94DE0461E671E085EC91E00E94550517
:100FE00085EC91E00E94DE068BE191E00E94DE0438
:100FF00081E090E00E94F00689E091E00E94DE042A
:1010000081E090E00E94F00687EF90E00E94DE040D
:1010100081E090E00E94F0068EEE90E00E94E206F1
:101020008AEC90E00E94E20685EC91E00E94DE06E8
:101030000E948E0387EC90E00E94DE0488E690E038
:101040000E94F00684EC90E00E94DE0442E06AE830
:101050007DE386E196E40E94B30585EC91E00E9471
:10106000DE061092800080E180938100109393014E
:101070008FB780939401F89480E493E09093920169
:1010800080939101909387008093860080919401D2
:101090008FBF80918100887F809381009091810033
:1010A00080919301892B8093810060E083E00E940E
:1010B0005E0261E08CE00E945E0261E083E10E94DA
:1010C0005E0261E08DE00E945E0260E082E10E94CB
:1010D0005E0260E273E080E090E00E94480360E01E
:1010E00083E10E945E0261E082E10E945E0260E2B2
:1010F00073E080E090E00E9448038EE892E09093D5
:1011000096018093950110936F00909181008091DA
:101110009301892B8093810054EFC52EDD24D39455
:10112000E12CF12C68EE862E63E0962EA12CB12CDA
:101130000E948203672B682B692B41F40E94820373
:10114000623071058105910508F408C10E9482038F
:101150006093C1017093C2018093C3019093C40155
:101160000091BD011091BE012091BF013091C001DD
:10117000601771078207930740F46093BD01709375
:10118000BE018093BF019093C0010091BD011091F9
:10119000BE012091BF013091C0012B013C01401ADA
:1011A000510A620A730A930182010A3F110521055F
:1011B000310508F4D3C06093BD017093BE018093E4
:1011C000BF019093C001C0927002D0927102E09270
:1011D0007202F092730210927402109275021092D1
:1011E0007602109277028091680290916902A09134
:1011F0006A02B0916B0280936C0290936D02A0938F
:101200006E02B0936F020E94820360936802709333
:10121000690280936A0290936B020E94820360933A
:1012200064027093650280936602909367020E9445
:1012300082032B013C0165E671E08091A40290914C
:10124000A5020E9455052AE041E050E060E070E010
:101250008091A4029091A5020E946A056CE671E05B
:101260008091A4029091A5020E9455052AE0B30145
:10127000A2018091A4029091A5020E946A056EE6E7
:1012800071E08091A4029091A5020E945505809181
:10129000680290916902A0916A02B0916B02B30159
:1012A000A201481B590B6A0B7B0B2AE08091A40218
:1012B0009091A5020E946A056EE671E08091A402F9
:1012C0009091A5020E9455054091680250916902D3
:1012D00060916A0270916B0280916C0290916D0234
:1012E000A0916E02B0916F02481B590B6A0B7B0BE9
:1012F0002AE08091A4029091A5020E946A0560E70D
:1013000071E08091A4029091A5020E9455050E946F
:101310008203AB01BC012AE08091A4029091A50256
:101320000E946A050091A4021091A50262E771E093
:10133000C8010E945505C8010E94DE0662E070E007
:1013400080E090E00E9448030E948203609368025C
:101350007093690280936A0290936B020E948203E9
:101360000091B9011091BA012091BB013091BC01EB
:10137000601771078207930760F10E948203DC0106
:10138000CB0188519C4FAF4FBF4F8093B9019093D1
:10139000BA01A093BB01B093BC018091B7019091B9
:1013A000B80101969093B8018093B701CC978CF067
:1013B0008091B5019091B601803A25E092072CF416
:1013C00001969093B6018093B5011092B8011092E6
:1013D000B70162E070E080E090E00E9448038EE098
:1013E0000E940603E0912F0421E02E0F20932F048A
:1013F000F0E0EE0FFF1FE35DFB4F9483838390913A
:101400002D04291710F010922F0480912E048917B3
:1014100018F48F5F80932E0462E070E080E090E02B
:101420000E94480380E10E940603E091AC0221E0A3
:101430002E0F2093AC02F0E0EE0FFF1FE655FD4F9C
:10144000948383839091AA02291710F01092AC0222
:101450008091AB02891718F48F5F8093AB020E94D2
:1014600082030091B1011091B2012091B30130913A
:10147000B401601771078207930708F4C9C10E947D
:101480008203DC01CB018C509E4FAF4FBF4F809346
:10149000B1019093B201A093B301B093B40185EC74
:1014A00091E00E948B01181619060CF088C085EC9B
:1014B00091E00E946901182F81EA91E00E94DE0408
:1014C000812F0E94FF0485EC91E00E94DE0685ECEE
:1014D00091E00E948B01892B29F085EC91E00E941C
:1014E0006901F5CF113309F06AC084E591E00E94EB
:1014F000E20600E210E0712C612C80E10E940603FC
:1015000021E0270DFE013196E70DF11DE70DF11DDC
:1015100094838383203210F4722E01C0712C3FE13A
:10152000361508F0639462E370E080E090E00E947A
:1015300048030150110909F78E010C5F1F4F212C40
:10154000312C2101712CF801619171918F0180E0A2
:1015500090E00E94AC0D9B01AC01C201B1010E9460
:10156000040F1B012C0173947610EDCF672D70E0F2
:1015700080E090E00E94AE0D9B01AC01C201B10180
:101580000E94700F0E94E90F7093B0016093AF0149
:101590006BE280E090E00E94D30E6091B00181E0A8
:1015A00090E00E94D30E6091AF0182E090E00E9433
:1015B000D30E83E491E00E94E2060E948E0360E075
:1015C0008CE00E945E0219821A821B821C82CE016C
:1015D00001960E940A0569817A818B819C810E9413
:1015E000E20F2091AF013091B001621B730B072E07
:1015F000000C880B990B0E94AE0D20E030EC4FE7F9
:1016000054E40E94700F2DEC3CEC4CE85FE30E9428
:101610000D0E2B013C016093AB017093AC018093E4
:10162000AD019093AE0120E030E0A9010E941810B6
:1016300011E018165CF42FE632E143E05CE3C301ED
:10164000B2010E94181087FF0CC00AC02FE632E1D9
:1016500043E05CEBC301B2010E94A70D18160CF425
:1016600010E01093AA01112321F01092B6011092FC
:10167000B50119821A821B821C8270902E04772079
:1016800049F100E314E0212C312C2101612CF801F7
:10169000619171918F0180E090E00E94AC0D9B01FF
:1016A000AC01C201B1010E94040F1B012C01639423
:1016B0006710EDCF672D70E080E090E00E94AE0DE6
:1016C0009B01AC01C201B1010E94700F69837A8352
:1016D0008B839C8320E030EC4FE754E469817A816E
:1016E0008B819C810E94700F2DEC3CEC4CE85FE3F9
:1016F0000E940D0E26E636E646E05FE30E94700F7C
:101700006093A6017093A7018093A8019093A9010B
:10171000772009F458C0E0E3F4E080E021913191B2
:10172000378F268F8F5F8711F9CF70E0872D90E07C
:101730000197272F30E028173907C4F511E0170F5C
:10174000A12F672FA715B8F4EA2FF0E0EE0FFF1FC7
:10175000E35DFB4F462F50E0440F551F435D5B4F49
:1017600043A054A0FA0143A154A14416550608F41D
:101770006A2FAF5FE7CF6717B9F0E62FF0E0EE0F03
:10178000FF1FE35DFB4F43A154A1220F331FD9017B
:10179000A35DBB4F93962D913C91949734A323A3C3
:1017A00094965C934E939397712FC3CF880F991F94
:1017B000FC01E35DFB4F43A054A0CC57DF4F59829F
:1017C0004882C458D040CC57DF4F68807980C458D5
:1017D000D040B30180E090E00E94AC0D20E030ECFE
:1017E0004FE754E40E94700F2DEC3CEC4CE85FE3B3
:1017F0000E940D0E26E636E646E05FE30E94700F7B
:101800006093A2017093A3018093A4019093A5011A
:101810000E94820300919E0110919F012091A001DE
:101820003091A101601771078207930708F46EC019
:101830000E948203DC01CB018C599F4FAF4FBF4FF9
:1018400080939E0190939F01A093A001B093A1016A
:10185000E5EEF1E08491E1EDF1E01491EDEBF1E0E2
:101860000491002379F081110E943502E02FF0E00D
:10187000EE0FFF1FE155FE4FA591B4918C911823F7
:1018800009F0D9C010929D0160E083E00E945E02E1
:1018900080919B0190919C01019690939C01809373
:1018A0009B018DE492E00E94E20660E08CE00E94E1
:1018B0005E0260E083E10E945E020AE010E061E007
:1018C0008DE00E945E0261E082E10E945E0262E3BE
:1018D00070E080E090E00E94480360E08DE00E94AC
:1018E0005E0260E082E10E945E0262E370E080E0FE
:1018F00090E00E9448030150110909F760E08DE073
:101900000E945E0260E082E10E945E020E94820309
:1019100000919701109198012091990130919A01BD
:10192000601771078207930708F482C00E94820340
:10193000DC01CB018C509E4FAF4FBF4F809397017E
:1019400090939801A0939901B0939A0187E492E053
:101950000E94DE040E948203A50194010E94E10E10
:10196000BA01A9012AE085EC91E00E946A058AE3A8
:1019700092E00E94DE046091AB017091AC01809115
:10198000AD019091AE0143E00E943F068AE292E0F1
:101990000E94DE0419821A821B821C82CE010196EB
:1019A0000E940A0569817A818B819C8142E00E94B4
:1019B0003F068DE192E00E94DE048091AA0190E052
:1019C0000E94A0068BE092E00E94DE046091A601D6
:1019D0007091A7018091A8019091A90142E00E9415
:1019E0003F0685E092E00E94DE046091A2017091C2
:1019F000A3018091A4019091A50142E00E943F06BD
:101A00008CEF91E00E94DE0480919B0190919C01FB
:101A10000E94A00685EF91E00E94DE048091B5014E
:101A20009091B6010E94A00685EC91E00E94DE062E
:101A30000E942B027DCB8091AA01811107C0809169
:101A4000B5019091B601883691406CF010929D01DD
:101A500060E083E00E945E0261E08DE00E945E0231
:101A600060E083E14DCF4424439440929D0161E0C6
:101A700083E00E945E0260E08DE00E945E022FE83B
:101A800032EC45EF5CE36091A6017091A701809173
:101A9000A8019091A9010E94181087FD06C060E07E
:101AA00082E10E945E0261E005C061E082E10E9485
:101AB0005E0260E083E128CFE5ECF1E01382128260
:101AC00088EE93E0A0E0B0E084839583A683B7839B
:101AD00081E491E09183808385EC90E09587848711
:101AE00084EC90E09787868780EC90E0918B808BE8
:101AF00081EC90E0938B828B82EC90E0958B848BD1
:101B000086EC90E0978B868B118E128E138E148E3E
:101B1000E2E6F2E01682178210861186128613869C
:101B20001486158616861786108A118A128A138AD9
:101B3000148A158AEDE2F4E080E18083118212823A
:101B4000EAEAF2E080E680831182128208950E9420
:101B5000E90D08F481E00895E89409C097FB3EF48C
:101B600090958095709561957F4F8F4F9F4F9923EA
:101B7000A9F0F92F96E9BB279395F6958795779568
:101B80006795B795F111F8CFFAF4BB0F11F460FF28
:101B90001BC06F5F7F4F8F4F9F4F16C0882311F080
:101BA00096E911C0772321F09EE8872F762F05C094
:101BB000662371F096E8862F70E060E02AF09A952F
:101BC000660F771F881FDAF7880F9695879597F924
:101BD0000895990F0008550FAA0BE0E8FEEF1616BE
:101BE0001706E807F907C0F012161306E407F50711
:101BF00098F0621B730B840B950B39F40A2661F085
:101C0000232B242B252B21F408950A2609F4A14027
:101C1000A6958FEF811D811D08950E94200E0C94C2
:101C2000910E0E94830E38F00E948A0E20F09523B8
:101C300011F00C947A0E0C94800E11240C94C50EA5
:101C40000E94A20E70F3959FC1F3950F50E0551FAF
:101C5000629FF001729FBB27F00DB11D639FAA2701
:101C6000F00DB11DAA1F649F6627B00DA11D661F50
:101C7000829F2227B00DA11D621F739FB00DA11D71
:101C8000621F839FA00D611D221F749F3327A00D2B
:101C9000611D231F849F600D211D822F762F6A2FC7
:101CA00011249F5750409AF0F1F088234AF0EE0F2C
:101CB000FF1FBB1F661F771F881F91505040A9F759
:101CC0009E3F510580F00C947A0E0C94C50E5F3F38
:101CD000E4F3983ED4F3869577956795B795F79595
:101CE000E7959F5FC1F7FE2B880F911D969587950D
:101CF00097F9089597F99F6780E870E060E008958C
:101D00009FEF80EC089500240A9416161706180613
:101D10000906089500240A941216130614060506EF
:101D20000895092E0394000C11F4882352F0BB0F80
:101D300040F4BF2B11F460FF04C06F5F7F4F8F4FE3
:101D40009F4F089557FD9058440F551F59F05F3F1E
:101D500071F04795880F97FB991F61F09F3F79F0CD
:101D600087950895121613061406551FF2CF46954F
:101D7000F1DF08C0161617061806991FF1CF8695D1
:101D80007105610508940895E894BB2766277727B5
:101D9000CB0197F90895F999FECF92BD81BDF89ACC
:101DA000992780B50895262FF999FECF1FBA92BDC5
:101DB00081BD20BD0FB6F894FA9AF99A0FBE01962C
:101DC0000895A1E21A2EAA1BBB1BFD010DC0AA1F7C
:101DD000BB1FEE1FFF1FA217B307E407F50720F094
:101DE000A21BB30BE40BF50B661F771F881F991F0F
:101DF0001A9469F760957095809590959B01AC0158
:101E0000BD01CF0108955058BB27AA270E941B0F80
:101E10000C94910E0E94830E38F00E948A0E20F0DE
:101E200039F49F3F19F426F40C94800E0EF4E095DB
:101E3000E7FB0C947A0EE92F0E94A20E58F3BA1712
:101E4000620773078407950720F079F4A6F50C94D0
:101E5000C40E0EF4E0950B2EBA2FA02D0B01B90184
:101E600090010C01CA01A0011124FF27591B99F010
:101E7000593F50F4503E68F11A16F040A22F232F1C
:101E8000342F4427585FF3CF469537952795A7956C
:101E9000F0405395C9F77EF41F16BA0B620B730B13
:101EA000840BBAF09150A1F0FF0FBB1F661F771F84
:101EB000881FC2F70EC0BA0F621F731F841F48F439
:101EC000879577956795B795F7959E3F08F0B0CFC2
:101ED0009395880F08F09927EE0F979587950895A9
:101EE0000E94840F0C94910E0E948A0E58F00E945A
:101EF000830E40F029F45F3F29F00C947A0E5111C3
:101F00000C94C50E0C94800E0E94A20E68F39923C7
:101F1000B1F3552391F3951B550BBB27AA276217E5
:101F20007307840738F09F5F5F4F220F331F441FF2
:101F3000AA1FA9F335D00E2E3AF0E0E832D0915026
:101F40005040E695001CCAF72BD0FE2F29D0660F13
:101F5000771F881FBB1F261737074807AB07B0E856
:101F600009F0BB0B802DBF01FF2793585F4F3AF05C
:101F70009E3F510578F00C947A0E0C94C50E5F3F8D
:101F8000E4F3983ED4F3869577956795B795F795E2
:101F90009F5FC9F7880F911D9695879597F90895CA
:101FA000E1E0660F771F881FBB1F62177307840766
:101FB000BA0720F0621B730B840BBA0BEE1F88F775
:101FC000E09508950E94E90F6894B1110C94C50E34
:101FD00008950E94AA0E88F09F5798F0B92F99276C
:101FE000B751B0F0E1F0660F771F881F991F1AF004
:101FF000BA95C9F714C0B13091F00E94C40EB1E097
:1020000008950C94C40E672F782F8827B85F39F095
:10201000B93FCCF3869577956795B395D9F73EF49C
:1020200090958095709561957F4F8F4F9F4F089544
:102030000E94E90D08F48FEF08950E94E90D880BC6
:10204000990B0895EE0FFF1F0590F491E02D099470
:0E20500081E090E0F8940C942D10F894FFCFEE
:10205E0001FF0101FF01FFFF0101FFFF0101FFFF72
:10206E000101FFFF01FF0101FFFF0101FFFF010160
:10207E00FF01FFFF01FF0101FFFF0101FF01FFFF54
:10208E000101FFFF01FF0101FF01FFFF0100000041
:10209E0000C20189045A0109028B0169017D0156B2
:1020AE004D4450565F317C315F564D4450560D0AAB
:1020BE000035393600564D4450455F003A323A00ED
:1020CE007C005F564D445045006E616E00696E6631
:0620DE00006F76660000B1
:107800000C94343C0C94513C0C94513C0C94513CE1
:107810000C94513C0C94513C0C94513C0C94513CB4
:107820000C94513C0C94513C0C94513C0C94513CA4
:107830000C94513C0C94513C0C94513C0C94513C94
:107840000C94513C0C94513C0C94513C0C94513C84
:107850000C94513C0C94513C0C94513C0C94513C74
:107860000C94513C0C94513C11241FBECFEFD8E036
:10787000DEBFCDBF11E0A0E0B1E0ECE9FFE702C060
:1078800005900D92A230B107D9F712E0A2E0B1E065
:1078900001C01D92AD30B107E1F70E942D3D0C945F
:1078A000CC3F0C94003C982F959595959595959582
:1078B000905D8F708A307CF0282F295A8091C0000B
:1078C00085FFFCCF9093C6008091C00085FFFCCF60
:1078D0002093C6000895282F205DF0CF982F809127
:1078E000C00085FFFCCF9093C6000895EF92FF92F1
:1078F0000F931F93EE24FF2487018091C00087FD22
:1079000017C00894E11CF11C011D111D81E4E8164B
:1079100082E4F8068FE0080780E0180770F3E09132
:107920000401F091050109958091C00087FFE9CF1E
:107930008091C6001F910F91FF90EF9008950E94D3
:10794000763C982F8091C00085FFFCCF9093C600B5
:1079500091362CF490330CF09053892F089597555D
:10796000892F08951F930E949F3C182F0E949F3CCF
:107970001295107F810F1F9108951F93182F882350
:1079800021F00E94763C1150E1F71F9108951F935A
:10799000182F0E94763C803249F0809103018F5F5E
:1079A000809303018530C1F01F9108958091C0003C
:1079B00085FFFCCF84E18093C6008091C00085FFE5
:1079C000FCCF1093C6008091C00085FFFCCF80E102
:1079D0008093C6001F910895E0910401F091050184
:1079E00009951F9108950E94763C803241F0809164
:1079F00003018F5F80930301853081F008958091AA
:107A0000C00085FFFCCF84E18093C6008091C00058
:107A100085FFFCCF80E18093C6000895E0910401CA
:107A2000F09105010995089540E951E08823A1F0FE
:107A30002D9A28EE33E0FA013197F1F721503040CA
:107A4000D1F72D9828EE33E0FA013197F1F7215064
:107A50003040D1F7815061F708953F924F925F9285
:107A60006F927F928F929F92AF92BF92CF92DF924E
:107A7000EF92FF920F931F93CF93DF93000080E16B
:107A80008093C4001092C50088E18093C10086E015
:107A90008093C2005098589A259A81E00E94143D24
:107AA00024E1F22E9EE1E92E85E9D82E0FE0C02ECA
:107AB00010E1B12EAA24A394B1E49B2EA6E58A2E50
:107AC000F2E57F2EE0E26E2E79E4572E63E5462E36
:107AD00050E5352E0E94763C8033B1F18133B9F107
:107AE000803409F46FC0813409F476C0823409F41B
:107AF00085C0853409F488C0803531F1823521F1A3
:107B0000813511F1853509F485C0863509F48DC0BC
:107B1000843609F496C0843709F403C1853709F423
:107B200072C1863709F466C0809103018F5F80932C
:107B30000301853079F6E0910401F0910501099582
:107B40000E94763C803351F60E94F33CC3CF0E94E2
:107B5000763C803249F78091C00085FFFCCFF092DF
:107B6000C6008091C00085FFFCCF9092C600809136
:107B7000C00085FFFCCF8092C6008091C00085FFC9
:107B8000FCCF7092C6008091C00085FFFCCF609250
:107B9000C6008091C00085FFFCCF5092C600809146
:107BA000C00085FFFCCF4092C6008091C00085FFD9
:107BB000FCCF3092C6008091C00085FFFCCFB09210
:107BC000C60088CF0E94763C863808F4BDCF0E945C
:107BD000763C0E94F33C7ECF0E94763C803809F4CC
:107BE0009CC0813809F40BC1823809F43CC1883942
:107BF00009F48FC080E00E94C73C6CCF84E10E94F2
:107C0000BD3C0E94F33C66CF85E00E94BD3C0E94D3
:107C1000F33C60CF0E94763C809306010E94763C44
:107C2000809307010E94F33C55CF0E94763C80333D
:107C300009F41DC183E00E94BD3C80E00E94C73C66
:107C400049CF0E94763C809309020E94763C809343
:107C5000080280910C028E7F80930C020E94763C79
:107C6000853409F415C18091080290910902892B8D
:107C700089F000E010E00E94763CF801E85FFE4FDA
:107C800080830F5F1F4F80910802909109020817AF
:107C9000190788F30E94763C803209F045CF809125
:107CA0000C0280FF01C16091060170910701660F0F
:107CB000771F7093070160930601A0910802B091AD
:107CC00009021097C9F0E8E0F1E09B01AD014E0F09
:107CD0005F1FF999FECF32BD21BD819180BDFA9A17
:107CE000F99A2F5F3F4FE417F50799F76A0F7B1F4B
:107CF00070930701609306018091C00085FFFCCF5F
:107D0000F092C6008091C00085FFFCCFB092C60003
:107D1000E1CE83E00E94C73CDDCE82E00E94C73CFA
:107D2000D9CE0E94763C809309020E94763C8093D3
:107D300008028091060190910701880F991F909386
:107D40000701809306010E94763C853409F4A6C0A1
:107D500080910C028E7F80930C020E94763C8032D0
:107D600009F0B8CE8091C00085FFFCCFF092C6002C
:107D7000609108027091090261157105B9F140E046
:107D800050E080910C02A82FA170B82FB27011C0E2
:107D9000BB2309F45CC0E0910601F0910701319624
:107DA000F0930701E09306014F5F5F4F46175707B7
:107DB000E8F4AA2369F3F999FECF209106013091E6
:107DC000070132BD21BDF89A90B58091C00085FFB2
:107DD000FCCF9093C6002F5F3F4F30930701209355
:107DE00006014F5F5F4F4617570718F38091C00099
:107DF00085FDE5CE8091C00085FFF8CFE0CE81E023
:107E00000E94C73C67CE0E94763C803209F08CCE3F
:107E10008091C00085FFFCCFF092C6008091C00029
:107E200085FFFCCFE092C6008091C00085FFFCCFAB
:107E3000D092C6008091C00085FFFCCFC092C600E2
:107E40008091C00085FFFCCFB092C60043CEE09188
:107E50000601F091070194918091C00085FFFCCF4D
:107E60009093C6009CCF80E10E94C73C33CE0E9415
:107E7000763C0E94763C182F0E94763C112309F430
:107E800083C0113009F484C08FE00E94C73C22CE29
:107E900080910C02816080930C02E5CE80910C02EF
:107EA000816080930C0259CF809107018823880F4D
:107EB000880B8A2180930B02809106019091070123
:107EC000880F991F90930701809306018091080203
:107ED00080FF09C080910802909109020196909359
:107EE000090280930802F894F999FECF1127E091D6
:107EF0000601F0910701C8E0D1E08091080290915D
:107F00000902103091F40091570001700130D9F34B
:107F100003E000935700E89500915700017001308D
:107F2000D9F301E100935700E89509901990009169
:107F3000570001700130D9F301E000935700E89534
:107F40001395103498F011270091570001700130FB
:107F5000D9F305E000935700E895009157000170B0
:107F60000130D9F301E100935700E895329602976A
:107F700009F0C7CF103011F00296E5CF112480919F
:107F8000C00085FFB9CEBCCE8EE10E94C73CA2CD19
:0C7F900085E90E94C73C9ECDF894FFCF0D
:027F9C00800063
:040000030000780081
:00000001FF