:100000000C942C010C9454010C9454010C94540144
:100010000C9454010C9454010C9454010C9454010C
:100020000C9454010C9454010C9454010C945401FC
:100030000C9454010C94A9060C9454010C94540192
:100040000C945F060C9454010C942D060C94070636
:100050000C9454010C9454010C9454010C945401CC
:100060000C9454010C9454016368617267654144B7
:10007000435A65726F3D006E6F20454550524F4D9B
:10008000206461746120666F756E642C20757369DD
:100090006E672064656661756C742063616C69626B
:1000A000726174696F6E2028494E413136392900DA
:1000B00000000000240027002A00000000002500A6
:1000C00028002B00663D00543D0020203120206692
:1000D0006F722063757272656E742073656E736FD4
:1000E000722063616C6962726174696F6E00707214
:1000F0006573732E2E2E005553455F4348475F436B
:10010000555252454E54203D005553455F5045527F
:10011000495F43555252454E543D005553455F503B
:100120004552495F4641554C543D00417264756DDE
:100130006F7765722053656E646572200053544179
:1001400052540063616C6962726174696F6E2064FD
:100150006F6E650063616C696272617465436861AA
:1001600072676543757272656E7453656E736F72F4
:1001700020286E6F74653A20726F626F74206D75FF
:100180007374206265206F75747369646520636899
:10019000617267696E672073746174696F6E21297B
:1001A000007265636569766564206B65793D000062
:1001B00000000023002600290004040404040404B1
:1001C0000402020202020203030303030301020406
:1001D00008102040800102040810200102040810C9
:1001E00020000000080002010000030407000000D6
:1001F000000000000009746F75743D0009666175A8
:100200006C74733D00096D61783D00097065726919
:1002100043757272656E74206176673D000969737B
:100220004368617267696E673D000963686743757B
:100230007272656E744144433D000963686743759B
:100240007272656E743D0074696D653D004D435F6B
:100250004641554C5400D00611241FBECFEFD8E0C4
:10026000DEBFCDBF11E0A0E0B1E0E0E2FDE102C001
:1002700005900D92A236B107D9F723E0A2E6B1E0CE
:1002800001C01D92AC3FB207E1F711E0CCE2D1E032
:1002900004C02197FE010E94830ECB32D107C9F71B
:1002A0000E9409070C948E0E0C9400000F931F936C
:1002B000CF93DF938C01C0E0D0E0F801EC0FFD1F7D
:1002C0006491662371F0E0919901F0919A01019097
:1002D000F081E02D89E991E00995892B11F02196B3
:1002E000ECCFCE01DF91CF911F910F910895E09156
:1002F0009901F0919A010190F081E02D682F89E930
:1003000091E00994AF92BF92CF92DF92EF92FF9269
:100310000F931F93CF93DF93D0913702DD2381F1A9
:100320008C0189E3A82E82E0B82EC12CD12C760155
:10033000C0E0F501619171915F0180E090E00E9461
:10034000380D9B01AC01C701B6010E941F0C6B0167
:100350007C01CF5FCD13EDCF6C2F70E080E090E09B
:100360000E943A0D9B01AC01C701B6010E94900C9E
:10037000F801608371838283938380E090E002C000
:1003800081E090E0DF91CF911F910F91FF90EF906E
:10039000DF90CF90BF90AF900895CF92DF92EF9211
:1003A000FF920F931F93CF93DF936C017A018B0120
:1003B000C0E0D0E0CE15DF0589F0D8016D918D0148
:1003C000D601ED91FC910190F081E02DC6010995D7
:1003D000892B11F47E0102C02196ECCFC701DF9179
:1003E000CF911F910F91FF90EF90DF90CF900895E4
:1003F000089580E090E00895FC01538D448D252FF1
:1004000030E0842F90E0821B930B541710F0CF96AE
:10041000089501970895FC01918D828D981761F0E0
:10042000828DDF01A80FB11D5D968C91928D9F5F2B
:100430009F73928F90E008958FEF9FEF0895FC01D6
:10044000918D828D981731F0828DE80FF11D858D89
:1004500090E008958FEF9FEF0895FC01918D228D1C
:10046000892F90E0805C9F4F821B91098F739927A1
:10047000089589E991E00E942D0221E0892B09F479
:1004800020E0822F0895FC01848DDF01A80FB11DAB
:10049000A35ABF4F2C91848D90E001968F739927BA
:1004A000848FA689B7892C93A089B1898C918064A7
:1004B0008C93938D848D981306C00288F389E02D68
:1004C00080818F7D80830895EF92FF920F931F9319
:1004D000CF93DF93EC0181E0888F9B8D8C8D9813F7
:1004E00005C0E889F989808185FD24C0F62E0B8D31
:1004F00010E00F5F1F4F0F731127E02E8C8DE81255
:100500000CC00FB607FCFACFE889F989808185FF16
:10051000F5CFCE010E944302F1CF8B8DFE01E80F93
:10052000F11DE35AFF4FF0820B8FEA89FB8980812E
:10053000806207C0EE89FF896083E889F98980813C
:100540008064808381E090E0DF91CF911F910F91D3
:10055000FF90EF900895CF93DF93EC01888D88236F
:10056000C9F0EA89FB89808185FD05C0A889B98920
:100570008C9186FD0FC00FB607FCF5CF808185FFFB
:10058000F2CFA889B9898C9185FFEDCFCE010E9469
:100590004302E7CFDF91CF91089580E090E0892B6F
:1005A00029F00E94390281110C94000008958330D3
:1005B00081F028F4813099F08230A1F008958730DD
:1005C000A9F08830B9F08430D1F4809180008F7D1B
:1005D00003C0809180008F7780938000089584B558
:1005E0008F7702C084B58F7D84BD08958091B0005F
:1005F0008F7703C08091B0008F7D8093B000089505
:100600001F93CF93DF93282F30E0F901EF51FE4F76
:100610008491F901E353FE4FD491F901E754FE4F61
:10062000C491CC23C9F0162F81110E94D702EC2F60
:10063000F0E0EE0FFF1FE654FF4FA591B4918FB786
:10064000F894111105C09C91ED2FE095E92302C0AB
:10065000EC91ED2BEC938FBFDF91CF911F9108951B
:1006600080917901882379F1E0916201F091630131
:10067000EF5FFE4F8081813019F429985A9A0BC0A0
:10068000E0916201F0916301EF5FFE4F80818F3F47
:1006900021F4299A5A985D9A01C05D982C9A80910C
:1006A00062019091630101969093630180936201CE
:1006B0008091620190916301CC9769F4109263017B
:1006C00010926201089560E085E00E94000360E0FE
:1006D0008CE00C9400030895CF93DF9390E0FC012D
:1006E000E353FE4F2491FC01E754FE4F849188238D
:1006F00061F190E0880F991FFC01E055FF4FC59113
:10070000D491FC01E654FF4FA591B491611109C049
:100710009FB7F8948881209582238883EC912E23BB
:100720000BC0623061F49FB7F8943881822F8095B6
:1007300083238883EC912E2B2C939FBF06C08FB709
:10074000F894E8812E2B28838FBFDF91CF910895F5
:100750008E3008F08E5087702091000190E4299F20
:1007600090011124822B80937C0080917A00806418
:1007700080937A0080917A0086FDFCCF809178008A
:100780002091790090E0922B08953FB7F8948091E2
:10079000690190916A01A0916B01B0916C0126B53D
:1007A000A89B05C02F3F19F00196A11DB11D3FBFA9
:1007B000BA2FA92F982F8827820F911DA11DB11D37
:1007C000BC01CD0142E0660F771F881F991F4A9533
:1007D000D1F708958F929F92AF92BF92CF92DF92FE
:1007E000EF92FF926B017C010E94C5034B015C01FB
:1007F000C114D104E104F104F1F00E94C503DC014D
:10080000CB0188199909AA09BB09883E9340A10523
:10081000B10570F321E0C21AD108E108F10888EEB1
:10082000880E83E0981EA11CB11CC114D104E10400
:10083000F10419F7DDCFFF90EF90DF90CF90BF90DC
:10084000AF909F908F9008952FB7F89460916501B5
:100850007091660180916701909168012FBF0895A2
:10086000009769F0FC0101900020E9F73197AF0192
:10087000481B590BBC0189E991E00C94CD0180E043
:1008800090E008958FE491E00C943004CF93DF93CF
:100890000E945601EC010E9442048C0F9D1FDF91C3
:1008A000CF9108958F929F92AF92BF920F931F9313
:1008B000CF93DF93CDB7DEB7A1970FB6F894DEBF25
:1008C0000FBECDBF19A2423008F44AE08E010F5D81
:1008D0001F4F842E912CA12CB12CA50194010E94B4
:1008E000610EE62FB901CA0101501109EA3014F472
:1008F000E05D01C0E95CD801EC93232B242B252B70
:1009000061F7C8010E943004A1960FB6F894DEBFCB
:100910000FBECDBFDF91CF911F910F91BF90AF90D0
:100920009F908F9008958F929F92AF92BF92CF9297
:10093000DF92EF92FF920F931F93CF93DF936B01A0
:100940007C01142F20E030E0A9010E948B0C87FF6E
:1009500009C08DE20E947701EC01F7FAF094F7F8F4
:10096000F09402C0C0E0D0E000E060E070E080E021
:100970009FE3011741F020E030E040E251E40E94A3
:10098000900C0F5FF6CF9B01AC01C701B6010E942E
:100990001F0C6B017C010E94090D4B015C010E9440
:1009A000380D9B01AC01C701B6010E941E0C6B0102
:1009B0007C014AE0C501B4010E945204C80FD91F4E
:1009C000112329F08EE20E947701C80FD91F11234D
:1009D00021F120E030E040E251E4C701B6010E947D
:1009E000EF0D4B015C010E94090D6B01E12CF12C14
:1009F0004AE0C701B6010E945204C80FD91FC701BF
:100A0000B6010E94380D9B01AC01C501B4010E94E2
:100A10001E0C6B017C011150DACFCE01DF91CF911A
:100A20001F910F91FF90EF90DF90CF90BF90AF900C
:100A30009F908F9008958F929F92AF92BF92CF9286
:100A4000DF92EF92FF92CF936B017C01C42F9B0149
:100A5000AC010E945C0E882319F082E591E01AC077
:100A600046015701E894B7F82FEF3FEF4FE75FE7F4
:100A7000C501B4010E945C0E811117C02FEF3FEF3A
:100A80004FE75FE7C501B4010E948B0C18166CF4A8
:100A900086E591E0CF91FF90EF90DF90CF90BF90EF
:100AA000AF909F908F900C9430042FEF3FEF4FE763
:100AB0005FE4C701B6010E94EA0D18161CF48AE52E
:100AC00091E0E8CF2FEF3FEF4FE75FECC701B601B2
:100AD0000E948B0C87FDF3CF4C2FC701B601CF913D
:100AE000FF90EF90DF90CF90BF90AF909F908F904E
:100AF0000C949304CF92DF92EF92FF92CF93DF9307
:100B00006C01990FEE08FF08F7FE12C08DE20E94FB
:100B10007701EC0166277727CB016C197D098E09D7
:100B20009F094AE00E9452047C01EC0EFD1E06C0A3
:100B30004AE0C701B6010E9452047C010E944204AF
:100B40008E0D9F1DDF91CF91FF90EF90DF90CF90A2
:100B50000895CF92DF92EF92FF92CF93DF936C01D3
:100B6000990FEE08FF08F7FE17C08DE20E9477018B
:100B7000EC0166277727CB016C197D098E099F0947
:100B80004AE00E9452048C0F9D1FDF91CF91FF908D
:100B9000EF90DF90CF9008954AE0C701B601DF9152
:100BA000CF91FF90EF90DF90CF900C9452040E9471
:100BB000890ECF9380E090E00E94080C8B3299F46C
:100BC00081E090E00E94080CC82F82E090E00E9433
:100BD000080C2C2F30E0322F2227282B30938C0149
:100BE00020938B0104C087E790E00E94460488E6CA
:100BF00090E00E94560160918B0170918C0180E021
:100C000090E04AE00E945204CF910C9442041F925B
:100C10000F920FB60F9211242F933F934F935F9330
:100C20006F937F938F939F93AF93BF93EF93FF93B4
:100C300089E991E00E944302FF91EF91BF91AF914A
:100C40009F918F917F916F915F914F913F912F91E4
:100C50000F900FBE0F901F9018951F920F920FB616
:100C60000F9211242F938F939F93EF93FF93E09113
:100C7000A901F091AA018081E091AF01F091B0014A
:100C800082FD12C090818091B2018F5F8F7320919D
:100C9000B301821751F0E091B201F0E0E756FE4F48
:100CA000958F8093B20101C08081FF91EF919F9158
:100CB0008F912F910F900FBE0F901F9018951F923C
:100CC0000F920FB60F9211242F933F938F939F9300
:100CD000AF93BF938091650190916601A0916701E8
:100CE000B09168013091640123E0230F2D3720F487
:100CF0000196A11DB11D05C026E8230F0296A11D76
:100D0000B11D209364018093650190936601A093C7
:100D10006701B09368018091690190916A01A09187
:100D20006B01B0916C010196A11DB11D8093690109
:100D300090936A01A0936B01B0936C01BF91AF9146
:100D40009F918F913F912F910F900FBE0F901F9009
:100D500018951F920F920FB60F9211242F933F9365
:100D60004F935F936F937F938F939F93AF93BF93B3
:100D7000EF93FF93E0917101F09172010995FF915A
:100D8000EF91BF91AF919F918F917F916F915F9103
:100D90004F913F912F910F900FBE0F901F9018957C
:100DA000E9E9F1E01382128288EE93E0A0E0B0E07E
:100DB00084839583A683B78381E491E091838083C4
:100DC00085EC90E09587848784EC90E09787868710
:100DD00080EC90E0918B808B81EC90E0938B828B08
:100DE00082EC90E0958B848B86EC90E0978B868BE1
:100DF000118E128E138E148EE9EBF3E080E1808366
:100E000011821282E6E3F2E080E680831182128290
:100E10000895CF93DF93CDB7DEB7C358D1090FB68E
:100E2000F894DEBF0FBECDBF789484B5826084BDD8
:100E300084B5816084BD85B5826085BD85B58160DE
:100E400085BD80916E00816080936E00109281005C
:100E50008091810082608093810080918100816017
:100E600080938100809180008160809380008091D8
:100E7000B10084608093B1008091B0008160809364
:100E8000B00080917A00846080937A0080917A002B
:100E9000826080937A0080917A00816080937A00EA
:100EA00080917A00806880937A001092C10061E09E
:100EB00089E00E946C0361E082E00E946C0361E0C3
:100EC00085E00E946C0361E083E00E946C0361E0B6
:100ED0008CE00E946C0361E083E10E946C0361E09E
:100EE00082E10E946C0360E08EE00E946C0360E08F
:100EF00084E00E946C0360E080E10E946C0383E068
:100F000080930001E091A901F091AA0182E0808321
:100F1000E091A501F091A6011082E091A701F09166
:100F2000A80187E680831092B101E091AD01F091B4
:100F3000AE0186E08083E091AB01F091AC0180814D
:100F400080618083E091AB01F091AC018081886089
:100F50008083E091AB01F091AC0180818068808357
:100F6000E091AB01F091AC0180818F7D80838DE3B6
:100F700091E00E9446048BE291E00E9456018EE5CA
:100F800091E00E9430040E9442048BE191E00E94B3
:100F9000560181E090E00E947A0589E091E00E948C
:100FA000560181E090E00E947A0587EF90E00E9470
:100FB000560181E090E00E947A058EEE90E00E945A
:100FC00046048AEC90E00E9446040E9442040E947B
:100FD000D90587EC90E00E94560188E690E00E94D7
:100FE0007A0584EC90E00E94560142E06AE87DE3D5
:100FF00086E196E40E9493040E94420410928000CD
:1010000080E18093810011E010936F018FB780938E
:101010007001F89480E493E090936E0180936D01E9
:101020009093870080938600809170018FBF80919C
:101030008100887F809381009091810080916F0171
:10104000892B8093810060E083E00E94000361E0CF
:101050008CE00E94000361E083E10E94000361E0F4
:101060008DE00E94000360E082E10E94000360E2E4
:1010700073E080E090E00E94EA0360E083E10E9478
:10108000000361E082E10E94000360E273E080E01F
:1010900090E00E94EA0380E393E0909372018093D2
:1010A000710110936F009091810080916F01892BE5
:1010B0008093810058EEC52E53E0D52EE12CF12C03
:1010C0000E942404009195011091960120919701AE
:1010D00030919801601771078207930760F10E94B1
:1010E0002404DC01CB0188519C4FAF4FBF4F80934C
:1010F000950190939601A0939701B09398018091E8
:10110000930190919401019690939401809393019F
:10111000CC978CF08091910190919201803A25E0DA
:1011200092072CF401969093920180939101109272
:1011300094011092930162E070E080E090E00E94E0
:10114000EA038EE00E94A803E091BB0321E02E0F8A
:101150002093BB03F0E0EE0FFF1FE754FC4F948396
:1011600083839091B903291710F01092BB038091EB
:10117000BA03891718F48F5F8093BA0362E070E0B6
:1011800080E090E00E94EA0380E10E94A803E091E1
:10119000380221E02E0F20933802F0E0EE0FFF1FFF
:1011A000EA5CFD4F9483838390913602291710F0F7
:1011B0001092380280913702891718F48F5F80935C
:1011C00037020E94240400918D0110918E0120911C
:1011D0008F0130919001601771078207930708F41F
:1011E000C8C10E942404DC01CB018C509E4FAF4F3C
:1011F000BF4F80938D0190938E01A0938F01B09388
:10120000900189E991E00E942D02181619060CF050
:1012100087C089E991E00E940B02182F81EA91E0D2
:101220000E945601812F0E9477010E94420489E9A1
:1012300091E00E942D02892B29F089E991E00E941A
:101240000B02F5CF113309F06BC084E591E00E94E9
:10125000460490E2A92EB12C10E000E080E10E944B
:10126000A80321E0210FFE013196E10FF11DE10FEE
:10127000F11D94838383203210F4122F01C010E0FB
:10128000003208F40F5F62E370E080E090E00E94BB
:10129000EA0381E0A81AB10809F7DE0114965D019E
:1012A000412C512C320110E0F501619171915F01E7
:1012B00080E090E00E94380D9B01AC01C301B201B7
:1012C0000E941F0C2B013C011F5F1013EDCF612FFB
:1012D00070E080E090E00E943A0D9B01AC01C301F8
:1012E000B2010E94900C0E94090D70938C016093D2
:1012F0008B016BE280E090E00E94100C60918C0109
:1013000081E090E00E94100C60918B0182E090E0FF
:101310000E94100C83E491E00E9446040E94D905CB
:1013200060E08CE00E94000319821A821B821C82FA
:10133000CE0101960E94820169817A818B819C8114
:101340000E94020D20918B0130918C01621B730B66
:10135000072E000C880B990B0E943A0D20E030EC10
:101360004FE754E40E94900C2DEC3CEC4CE85FE31A
:101370000E94EF0D2B013C0160938701709388015F
:101380008093890190938A0120E030E0A9010E94B6
:10139000EA0D11E018165CF42FE632E143E05CE35D
:1013A000C301B2010E94EA0D87FF0CC00AC02FE6FC
:1013B00032E143E05CEBC301B2010E948B0C1816D2
:1013C0000CF410E010938601112321F01092920189
:1013D0001092910119821A821B821C821091BA0309
:1013E000112359F18CEBA82E83E0B82E212C312C3F
:1013F000210100E0D5016D917D915D0180E090E0DB
:101400000E94380D9B01AC01C201B1010E941F0C6A
:101410001B012C010F5F0113EDCF612F70E080E005
:1014200090E00E943A0D9B01AC01C201B1010E9403
:10143000900C69837A838B839C8320E030EC4FE7A8
:1014400054E469817A818B819C810E94900C2DECFF
:101450003CEC4CE85FE30E94EF0D26E636E646E002
:101460005FE30E94900C60938201709383018093EC
:10147000840190938501112309F45CC0ECEBF3E047
:1014800080E021913191378F268F8F5F8113F9CFC3
:1014900030E0812F90E00197432F50E04817590723
:1014A0000CF041C021E0230F622FE32F611708F5F4
:1014B000A62EB12CAA0CBB1CD501A754BC4F5D01B4
:1014C000AE2FB0E04D01880C991CD401A754BC4F3D
:1014D0004D01D5019396AD90BC909497D40193960D
:1014E0008D909C909497A814B90408F4E62F6F5F30
:1014F000DDCFE317B1F0F0E0EE0FFF1FE754FC4F34
:1015000063A174A1440F551FDA01A754BC4F9396F1
:101510004D915C91949754A343A394967C936E93BE
:101520009397322FB9CF880F991FFC01E754FC4FD6
:1015300083A094A0B40180E090E00E94380D20E0E8
:1015400030EC4FE754E40E94900C2DEC3CEC4CE85E
:101550005FE30E94EF0D26E636E646E05FE30E9479
:10156000900C60937E0170937F0180938001909333
:1015700081010E94240400917A0110917B01209145
:101580007C0130917D01601771078207930708F491
:101590006EC00E942404DC01CB018C599F4FAF4FD9
:1015A000BF4F80937A0190937B01A0937C01B0930D
:1015B0007D01E5EEF1E08491E1EDF1E00491EDEBE8
:1015C000F1E01491112379F081110E94D702E12FEB
:1015D000F0E0EE0FFF1FE155FE4FA591B4918C9105
:1015E000082309F0D5C01092790160E083E00E94E1
:1015F0000003809177019091780101969093780192
:10160000809377018DE492E00E94460460E08CE0D4
:101610000E94000360E083E10E9400030AE010E002
:1016200061E08DE00E94000361E082E10E9400031E
:1016300062E370E080E090E00E94EA0360E08DE009
:101640000E94000360E082E10E94000362E370E018
:1016500080E090E00E94EA030150110909F760E080
:101660008DE00E94000360E082E10E9400030E947E
:10167000240400917301109174012091750130913F
:101680007601601771078207930708F47EC00E94F5
:101690002404DC01CB018C509E4FAF4FBF4F809391
:1016A000730190937401A0937501B093760187E460
:1016B00092E00E9456010E942404A70196010E9414
:1016C000610ECA01B9014AE00E9452048AE392E025
:1016D0000E94560160918701709188018091890173
:1016E00090918A0143E00E941B058AE292E00E94E9
:1016F000560119821A821B821C82CE0101960E9419
:10170000820169817A818B819C8142E00E941B0564
:101710008DE192E00E9456018091860190E00E9446
:10172000A9058BE092E00E945601609182017091C0
:101730008301809184019091850142E00E941B0504
:1017400085E092E00E94560160917E0170917F01D8
:10175000809180019091810142E00E941B058CEFF5
:1017600091E00E94560180917701909178010E944A
:10177000A90585EF91E00E94560180919101909119
:1017800092010E94A9050E9442040E94CD0298CCB9
:1017900080918601811107C0809191019091920101
:1017A000883691406CF01092790160E083E00E94ED
:1017B000000361E08DE00E94000360E083E151CF0F
:1017C00021E02093790161E083E00E94000360E062
:1017D0008DE00E9400032FE832EC45EF5CE360915E
:1017E00082017091830180918401909185010E9412
:1017F000EA0D87FD06C060E082E10E94000361E01F
:1018000005C061E082E10E94000360E083E12DCF2A
:10181000F999FECF92BD81BDF89A992780B50895B8
:10182000262FF999FECF1FBA92BD81BD20BD0FB6FC
:10183000F894FA9AF99A0FBE019608955058BB276A
:10184000AA270E94360C0C94B00D0E94A20D38F00D
:101850000E94A90D20F039F49F3F19F426F40C944E
:101860009F0D0EF4E095E7FB0C94990DE92F0E9473
:10187000C10D58F3BA17620773078407950720F064
:1018800079F4A6F50C94E30D0EF4E0950B2EBA2F27
:10189000A02D0B01B90190010C01CA01A001112476
:1018A000FF27591B99F0593F50F4503E68F11A1622
:1018B000F040A22F232F342F4427585FF3CF4695B3
:1018C00037952795A795F0405395C9F77EF41F16D5
:1018D000BA0B620B730B840BBAF09150A1F0FF0F9F
:1018E000BB1F661F771F881FC2F70EC0BA0F621F8B
:1018F000731F841F48F4879577956795B795F7957B
:101900009E3F08F0B0CF9395880F08F09927EE0F0F
:101910009795879508950E94750D08F481E00895C4
:101920000E94A40C0C94B00D0E94A90D58F00E94C6
:10193000A20D40F029F45F3F29F00C94990D51114C
:101940000C94E40D0C949F0D0E94C10D68F3992333
:10195000B1F3552391F3951B550BBB27AA276217AB
:101960007307840738F09F5F5F4F220F331F441FB8
:10197000AA1FA9F335D00E2E3AF0E0E832D09150EC
:101980005040E695001CCAF72BD0FE2F29D0660FD9
:10199000771F881FBB1F261737074807AB07B0E81C
:1019A00009F0BB0B802DBF01FF2793585F4F3AF022
:1019B0009E3F510578F00C94990D0C94E40D5F3F17
:1019C000E4F3983ED4F3869577956795B795F795A8
:1019D0009F5FC9F7880F911D9695879597F9089590
:1019E000E1E0660F771F881FBB1F6217730784072C
:1019F000BA0720F0621B730B840BBA0BEE1F88F73B
:101A0000E09508950E94090D6894B1110C94E40DBD
:101A100008950E94C90D88F09F5798F0B92F992713
:101A2000B751B0F0E1F0660F771F881F991F1AF0C9
:101A3000BA95C9F714C0B13091F00E94E30DB1E03E
:101A400008950C94E30D672F782F8827B85F39F03D
:101A5000B93FCCF3869577956795B395D9F73EF462
:101A600090958095709561957F4F8F4F9F4F08950A
:101A7000E89409C097FB3EF4909580957095619528
:101A80007F4F8F4F9F4F9923A9F0F92F96E9BB27DE
:101A90009395F695879577956795B795F111F8CF5A
:101AA000FAF4BB0F11F460FF1BC06F5F7F4F8F4FC5
:101AB0009F4F16C0882311F096E911C0772321F0BB
:101AC0009EE8872F762F05C0662371F096E8862F53
:101AD00070E060E02AF09A95660F771F881FDAF7AA
:101AE000880F9695879597F90895990F0008550FD7
:101AF000AA0BE0E8FEEF16161706E807F907C0F094
:101B000012161306E407F50798F0621B730B840B9B
:101B1000950B39F40A2661F0232B242B252B21F475
:101B200008950A2609F4A140A6958FEF811D811D15
:101B3000089597F99F6780E870E060E008959FEF4F
:101B400080EC089500240A94161617061806090654
:101B5000089500240A941216130614060506089523
:101B6000092E0394000C11F4882352F0BB0F40F4AB
:101B7000BF2B11F460FF04C06F5F7F4F8F4F9F4FEB
:101B8000089557FD9058440F551F59F05F3F71F06D
:101B90004795880F97FB991F61F09F3F79F08795D4
:101BA0000895121613061406551FF2CF4695F1DF5D
:101BB00008C0161617061806991FF1CF86957105ED
:101BC000610508940895E894BB2766277727CB0121
:101BD00097F908950E94750D08F48FEF08950E94FB
:101BE000020E0C94B00D0E94A20D38F00E94A90DB7
:101BF00020F0952311F00C94990D0C949F0D112455
:101C00000C94E40D0E94C10D70F3959FC1F3950FE4
:101C100050E0551F629FF001729FBB27F00DB11D70
:101C2000639FAA27F00DB11DAA1F649F6627B00D00
:101C3000A11D661F829F2227B00DA11D621F739FE9
:101C4000B00DA11D621F839FA00D611D221F749FF7
:101C50003327A00D611D231F849F600D211D822F3E
:101C6000762F6A2F11249F5750409AF0F1F0882365
:101C70004AF0EE0FFF1FBB1F661F771F881F915092
:101C80005040A9F79E3F510580F00C94990D0C949B
:101C9000E40D5F3FE4F3983ED4F38695779567951E
:101CA000B795F795E7959F5FC1F7FE2B880F911DBC
:101CB0009695879597F908950E94750D880B990B55
:101CC0000895A1E21A2EAA1BBB1BFD010DC0AA1F7D
:101CD000BB1FEE1FFF1FA217B307E407F50720F095
:101CE000A21BB30BE40BF50B661F771F881F991F10
:101CF0001A9469F760957095809590959B01AC0159
:101D0000BD01CF010895EE0FFF1F0590F491E02D66
:101D1000099481E090E0F8940C948E0EF894FFCF33
:101D200001FF0101FF01FFFF0101FFFF0101FFFFB3
:101D30000101FFFF01FF0101FFFF0101FFFF0101A1
:101D4000FF01FFFF01FF0101FFFF0101FF01FFFF95
:101D50000101FFFF01FF0101FF01FFFF0100000082
:101D6000006402CD01FC01AB022D020B021F020D2B
:101D70000A006E616E00696E66006F766600353926
:021D800036002B
:107800000C94343C0C94513C0C94513C0C94513CE1
:107810000C94513C0C94513C0C94513C0C94513CB4
:107820000C94513C0C94513C0C94513C0C94513CA4
:107830000C94513C0C94513C0C94513C0C94513C94
:107840000C94513C0C94513C0C94513C0C94513C84
:107850000C94513C0C94513C0C94513C0C94513C74
:107860000C94513C0C94513C11241FBECFEFD8E036
:10787000DEBFCDBF11E0A0E0B1E0ECE9FFE702C060
:1078800005900D92A230B107D9F712E0A2E0B1E065
:1078900001C01D92AD30B107E1F70E942D3D0C945F
:1078A000CC3F0C94003C982F959595959595959582
:1078B000905D8F708A307CF0282F295A8091C0000B
:1078C00085FFFCCF9093C6008091C00085FFFCCF60
:1078D0002093C6000895282F205DF0CF982F809127
:1078E000C00085FFFCCF9093C6000895EF92FF92F1
:1078F0000F931F93EE24FF2487018091C00087FD22
:1079000017C00894E11CF11C011D111D81E4E8164B
:1079100082E4F8068FE0080780E0180770F3E09132
:107920000401F091050109958091C00087FFE9CF1E
:107930008091C6001F910F91FF90EF9008950E94D3
:10794000763C982F8091C00085FFFCCF9093C600B5
:1079500091362CF490330CF09053892F089597555D
:10796000892F08951F930E949F3C182F0E949F3CCF
:107970001295107F810F1F9108951F93182F882350
:1079800021F00E94763C1150E1F71F9108951F935A
:10799000182F0E94763C803249F0809103018F5F5E
:1079A000809303018530C1F01F9108958091C0003C
:1079B00085FFFCCF84E18093C6008091C00085FFE5
:1079C000FCCF1093C6008091C00085FFFCCF80E102
:1079D0008093C6001F910895E0910401F091050184
:1079E00009951F9108950E94763C803241F0809164
:1079F00003018F5F80930301853081F008958091AA
:107A0000C00085FFFCCF84E18093C6008091C00058
:107A100085FFFCCF80E18093C6000895E0910401CA
:107A2000F09105010995089540E951E08823A1F0FE
:107A30002D9A28EE33E0FA013197F1F721503040CA
:107A4000D1F72D9828EE33E0FA013197F1F7215064
:107A50003040D1F7815061F708953F924F925F9285
:107A60006F927F928F929F92AF92BF92CF92DF924E
:107A7000EF92FF920F931F93CF93DF93000080E16B
:107A80008093C4001092C50088E18093C10086E015
:107A90008093C2005098589A259A81E00E94143D24
:107AA00024E1F22E9EE1E92E85E9D82E0FE0C02ECA
:107AB00010E1B12EAA24A394B1E49B2EA6E58A2E50
:107AC000F2E57F2EE0E26E2E79E4572E63E5462E36
:107AD00050E5352E0E94763C8033B1F18133B9F107
:107AE000803409F46FC0813409F476C0823409F41B
:107AF00085C0853409F488C0803531F1823521F1A3
:107B0000813511F1853509F485C0863509F48DC0BC
:107B1000843609F496C0843709F403C1853709F423
:107B200072C1863709F466C0809103018F5F80932C
:107B30000301853079F6E0910401F0910501099582
:107B40000E94763C803351F60E94F33CC3CF0E94E2
:107B5000763C803249F78091C00085FFFCCFF092DF
:107B6000C6008091C00085FFFCCF9092C600809136
:107B7000C00085FFFCCF8092C6008091C00085FFC9
:107B8000FCCF7092C6008091C00085FFFCCF609250
:107B9000C6008091C00085FFFCCF5092C600809146
:107BA000C00085FFFCCF4092C6008091C00085FFD9
:107BB000FCCF3092C6008091C00085FFFCCFB09210
:107BC000C60088CF0E94763C863808F4BDCF0E945C
:107BD000763C0E94F33C7ECF0E94763C803809F4CC
:107BE0009CC0813809F40BC1823809F43CC1883942
:107BF00009F48FC080E00E94C73C6CCF84E10E94F2
:107C0000BD3C0E94F33C66CF85E00E94BD3C0E94D3
:107C1000F33C60CF0E94763C809306010E94763C44
:107C2000809307010E94F33C55CF0E94763C80333D
:107C300009F41DC183E00E94BD3C80E00E94C73C66
:107C400049CF0E94763C809309020E94763C809343
:107C5000080280910C028E7F80930C020E94763C79
:107C6000853409F415C18091080290910902892B8D
:107C700089F000E010E00E94763CF801E85FFE4FDA
:107C800080830F5F1F4F80910802909109020817AF
:107C9000190788F30E94763C803209F045CF809125
:107CA0000C0280FF01C16091060170910701660F0F
:107CB000771F7093070160930601A0910802B091AD
:107CC00009021097C9F0E8E0F1E09B01AD014E0F09
:107CD0005F1FF999FECF32BD21BD819180BDFA9A17
:107CE000F99A2F5F3F4FE417F50799F76A0F7B1F4B
:107CF00070930701609306018091C00085FFFCCF5F
:107D0000F092C6008091C00085FFFCCFB092C60003
:107D1000E1CE83E00E94C73CDDCE82E00E94C73CFA
:107D2000D9CE0E94763C809309020E94763C8093D3
:107D300008028091060190910701880F991F909386
:107D40000701809306010E94763C853409F4A6C0A1
:107D500080910C028E7F80930C020E94763C8032D0
:107D600009F0B8CE8091C00085FFFCCFF092C6002C
:107D7000609108027091090261157105B9F140E046
:107D800050E080910C02A82FA170B82FB27011C0E2
:107D9000BB2309F45CC0E0910601F0910701319624
:107DA000F0930701E09306014F5F5F4F46175707B7
:107DB000E8F4AA2369F3F999FECF209106013091E6
:107DC000070132BD21BDF89A90B58091C00085FFB2
:107DD000FCCF9093C6002F5F3F4F30930701209355
:107DE00006014F5F5F4F4617570718F38091C00099
:107DF00085FDE5CE8091C00085FFF8CFE0CE81E023
:107E00000E94C73C67CE0E94763C803209F08CCE3F
:107E10008091C00085FFFCCFF092C6008091C00029
:107E200085FFFCCFE092C6008091C00085FFFCCFAB
:107E3000D092C6008091C00085FFFCCFC092C600E2
:107E40008091C00085FFFCCFB092C60043CEE09188
:107E50000601F091070194918091C00085FFFCCF4D
:107E60009093C6009CCF80E10E94C73C33CE0E9415
:107E7000763C0E94763C182F0E94763C112309F430
:107E800083C0113009F484C08FE00E94C73C22CE29
:107E900080910C02816080930C02E5CE80910C02EF
:107EA000816080930C0259CF809107018823880F4D
:107EB000880B8A2180930B02809106019091070123
:107EC000880F991F90930701809306018091080203
:107ED00080FF09C080910802909109020196909359
:107EE000090280930802F894F999FECF1127E091D6
:107EF0000601F0910701C8E0D1E08091080290915D
:107F00000902103091F40091570001700130D9F34B
:107F100003E000935700E89500915700017001308D
:107F2000D9F301E100935700E89509901990009169
:107F3000570001700130D9F301E000935700E89534
:107F40001395103498F011270091570001700130FB
:107F5000D9F305E000935700E895009157000170B0
:107F60000130D9F301E100935700E895329602976A
:107F700009F0C7CF103011F00296E5CF112480919F
:107F8000C00085FFB9CEBCCE8EE10E94C73CA2CD19
:0C7F900085E90E94C73C9ECDF894FFCF0D
:027F9C00800063
:040000030000780081
:00000001FF